:020000020000FC
:02000000FFC23D
:06020000010204081020B9
:1004000011214181122242821424448418284888F0
:100600000FE00ABB002700BF0FEF0F700BBB0FEF0F
:1006100007BB04BB222709B3007F0030E1F711E0DC
:100620001BBB09B3007F003031F42395110F243038
:10063000B9F72227F4CF1F70012B2227EE27F4E011
:100640001491101739F0E39523952031C9F7E3CFC2
:10065000B9F7E1CF043119F03FEF3030E9F741E06D
:10066000403469F000E00DBF02E00EBFA89A48BB1D
:10067000A89807D006D005D0A89A441FF1CF00E073
:10068000FECF14EF2FEF2A952030E9F71A953FEFB0
:0C0690003A95303AE9F71030A9F70895C8
:00000001FF
