:020000020000FC
:02000000FFC23D
:06020000010204081020B9
:1004000011214181122242821424448418284888F0
:100600000FE00ABB002700BF0FEF0F700BBB0FEF0F
:1006100007BB04BB222709B3007F0030E1F711E0DC
:100620001BBB09B3007F003031F42395110F243038
:10063000B9F72227F4CF1F70012B2227EE27F4E011
:100640001491101739F0E39523952031C9F7E3CFC2
:10065000B9F7E1CF023121F03FEF3030E9F755270C
:1006600046E600E00DBF02E00EBFA89A48BBA8987E
:1006700006D0A89A04D05395583071F3F1CF1FEFEC
:100680002FEF2A952030E9F71A951030C9F7089511
:00000001FF
